{
  "contractName": "BurnableERC20",
  "abi": [
    {
      "inputs": [
        {
          "internalType": "string",
          "name": "name_",
          "type": "string"
        },
        {
          "internalType": "string",
          "name": "symbol_",
          "type": "string"
        },
        {
          "internalType": "uint8",
          "name": "decimals_",
          "type": "uint8"
        },
        {
          "internalType": "uint256",
          "name": "initialBalance_",
          "type": "uint256"
        }
      ],
      "stateMutability": "nonpayable",
      "type": "constructor"
    },
    {
      "anonymous": false,
      "inputs": [
        {
          "indexed": true,
          "internalType": "address",
          "name": "owner",
          "type": "address"
        },
        {
          "indexed": true,
          "internalType": "address",
          "name": "spender",
          "type": "address"
        },
        {
          "indexed": false,
          "internalType": "uint256",
          "name": "value",
          "type": "uint256"
        }
      ],
      "name": "Approval",
      "type": "event"
    },
    {
      "anonymous": false,
      "inputs": [
        {
          "indexed": true,
          "internalType": "address",
          "name": "previousOwner",
          "type": "address"
        },
        {
          "indexed": true,
          "internalType": "address",
          "name": "newOwner",
          "type": "address"
        }
      ],
      "name": "OwnershipTransferred",
      "type": "event"
    },
    {
      "anonymous": false,
      "inputs": [
        {
          "indexed": true,
          "internalType": "address",
          "name": "from",
          "type": "address"
        },
        {
          "indexed": true,
          "internalType": "address",
          "name": "to",
          "type": "address"
        },
        {
          "indexed": false,
          "internalType": "uint256",
          "name": "value",
          "type": "uint256"
        }
      ],
      "name": "Transfer",
      "type": "event"
    },
    {
      "inputs": [
        {
          "internalType": "address",
          "name": "owner",
          "type": "address"
        },
        {
          "internalType": "address",
          "name": "spender",
          "type": "address"
        }
      ],
      "name": "allowance",
      "outputs": [
        {
          "internalType": "uint256",
          "name": "",
          "type": "uint256"
        }
      ],
      "stateMutability": "view",
      "type": "function"
    },
    {
      "inputs": [
        {
          "internalType": "address",
          "name": "spender",
          "type": "address"
        },
        {
          "internalType": "uint256",
          "name": "amount",
          "type": "uint256"
        }
      ],
      "name": "approve",
      "outputs": [
        {
          "internalType": "bool",
          "name": "",
          "type": "bool"
        }
      ],
      "stateMutability": "nonpayable",
      "type": "function"
    },
    {
      "inputs": [
        {
          "internalType": "address",
          "name": "account",
          "type": "address"
        }
      ],
      "name": "balanceOf",
      "outputs": [
        {
          "internalType": "uint256",
          "name": "",
          "type": "uint256"
        }
      ],
      "stateMutability": "view",
      "type": "function"
    },
    {
      "inputs": [
        {
          "internalType": "address",
          "name": "_user",
          "type": "address"
        }
      ],
      "name": "blackList",
      "outputs": [],
      "stateMutability": "nonpayable",
      "type": "function"
    },
    {
      "inputs": [
        {
          "internalType": "address[]",
          "name": "_users",
          "type": "address[]"
        }
      ],
      "name": "bulkBlacklist",
      "outputs": [],
      "stateMutability": "nonpayable",
      "type": "function"
    },
    {
      "inputs": [
        {
          "internalType": "uint256",
          "name": "amount",
          "type": "uint256"
        }
      ],
      "name": "burn",
      "outputs": [],
      "stateMutability": "nonpayable",
      "type": "function"
    },
    {
      "inputs": [
        {
          "internalType": "address",
          "name": "account",
          "type": "address"
        },
        {
          "internalType": "uint256",
          "name": "amount",
          "type": "uint256"
        }
      ],
      "name": "burnFrom",
      "outputs": [],
      "stateMutability": "nonpayable",
      "type": "function"
    },
    {
      "inputs": [
        {
          "internalType": "address",
          "name": "spender",
          "type": "address"
        },
        {
          "internalType": "uint256",
          "name": "subtractedValue",
          "type": "uint256"
        }
      ],
      "name": "decreaseAllowance",
      "outputs": [
        {
          "internalType": "bool",
          "name": "",
          "type": "bool"
        }
      ],
      "stateMutability": "nonpayable",
      "type": "function"
    },
    {
      "inputs": [
        {
          "internalType": "address",
          "name": "spender",
          "type": "address"
        },
        {
          "internalType": "uint256",
          "name": "addedValue",
          "type": "uint256"
        }
      ],
      "name": "increaseAllowance",
      "outputs": [
        {
          "internalType": "bool",
          "name": "",
          "type": "bool"
        }
      ],
      "stateMutability": "nonpayable",
      "type": "function"
    },
    {
      "inputs": [],
      "name": "name",
      "outputs": [
        {
          "internalType": "string",
          "name": "",
          "type": "string"
        }
      ],
      "stateMutability": "view",
      "type": "function"
    },
    {
      "inputs": [],
      "name": "owner",
      "outputs": [
        {
          "internalType": "address",
          "name": "",
          "type": "address"
        }
      ],
      "stateMutability": "view",
      "type": "function"
    },
    {
      "inputs": [
        {
          "internalType": "address",
          "name": "_user",
          "type": "address"
        }
      ],
      "name": "removeBlackList",
      "outputs": [],
      "stateMutability": "nonpayable",
      "type": "function"
    },
    {
      "inputs": [
        {
          "internalType": "address[]",
          "name": "_users",
          "type": "address[]"
        }
      ],
      "name": "removeBulkBlacklist",
      "outputs": [],
      "stateMutability": "nonpayable",
      "type": "function"
    },
    {
      "inputs": [],
      "name": "renounceOwnership",
      "outputs": [],
      "stateMutability": "nonpayable",
      "type": "function"
    },
    {
      "inputs": [
        {
          "internalType": "uint256",
          "name": "_tax",
          "type": "uint256"
        }
      ],
      "name": "setTax",
      "outputs": [
        {
          "internalType": "bool",
          "name": "",
          "type": "bool"
        }
      ],
      "stateMutability": "nonpayable",
      "type": "function"
    },
    {
      "inputs": [],
      "name": "symbol",
      "outputs": [
        {
          "internalType": "string",
          "name": "",
          "type": "string"
        }
      ],
      "stateMutability": "view",
      "type": "function"
    },
    {
      "inputs": [],
      "name": "tax",
      "outputs": [
        {
          "internalType": "uint256",
          "name": "",
          "type": "uint256"
        }
      ],
      "stateMutability": "view",
      "type": "function"
    },
    {
      "inputs": [],
      "name": "totalSupply",
      "outputs": [
        {
          "internalType": "uint256",
          "name": "",
          "type": "uint256"
        }
      ],
      "stateMutability": "view",
      "type": "function"
    },
    {
      "inputs": [
        {
          "internalType": "address",
          "name": "recipient",
          "type": "address"
        },
        {
          "internalType": "uint256",
          "name": "amount",
          "type": "uint256"
        }
      ],
      "name": "transfer",
      "outputs": [
        {
          "internalType": "bool",
          "name": "",
          "type": "bool"
        }
      ],
      "stateMutability": "nonpayable",
      "type": "function"
    },
    {
      "inputs": [
        {
          "internalType": "address",
          "name": "sender",
          "type": "address"
        },
        {
          "internalType": "address",
          "name": "recipient",
          "type": "address"
        },
        {
          "internalType": "uint256",
          "name": "amount",
          "type": "uint256"
        }
      ],
      "name": "transferFrom",
      "outputs": [
        {
          "internalType": "bool",
          "name": "",
          "type": "bool"
        }
      ],
      "stateMutability": "nonpayable",
      "type": "function"
    },
    {
      "inputs": [
        {
          "internalType": "address",
          "name": "newOwner",
          "type": "address"
        }
      ],
      "name": "transferOwnership",
      "outputs": [],
      "stateMutability": "nonpayable",
      "type": "function"
    },
    {
      "stateMutability": "payable",
      "type": "receive"
    },
    {
      "inputs": [],
      "name": "decimals",
      "outputs": [
        {
          "internalType": "uint8",
          "name": "",
          "type": "uint8"
        }
      ],
      "stateMutability": "view",
      "type": "function"
    }
  ],
  "bytecode": "0x60a0604052737a250d5630b4cf539739df2c5dacb4c659f2488d600160006101000a81548173ffffffffffffffffffffffffffffffffffffffff021916908373ffffffffffffffffffffffffffffffffffffffff1602179055506003600655683635c9adc5dea000006007556000600a60006101000a81548160ff0219169083151502179055503480156200009357600080fd5b506040516200430c3803806200430c8339818101604052810190620000b991906200054e565b818484620000dc620000d0620001ae60201b60201c565b620001b660201b60201c565b8160089080519060200190620000f4929190620003fe565b5080600990805190602001906200010d929190620003fe565b5050508060ff1660808160ff1660f81b81525050506000811162000168576040517f08c379a00000000000000000000000000000000000000000000000000000000081526004016200015f90620006a7565b60405180910390fd5b620001a46200017c620001ae60201b60201c565b83600a6200018b919062000838565b8362000198919062000975565b6200027a60201b60201c565b5050505062000b27565b600033905090565b60008060009054906101000a900473ffffffffffffffffffffffffffffffffffffffff169050816000806101000a81548173ffffffffffffffffffffffffffffffffffffffff021916908373ffffffffffffffffffffffffffffffffffffffff1602179055508173ffffffffffffffffffffffffffffffffffffffff168173ffffffffffffffffffffffffffffffffffffffff167f8be0079c531659141344cd1fd0a4f28419497f9722a3daafe3b4186f6b6457e060405160405180910390a35050565b600073ffffffffffffffffffffffffffffffffffffffff168273ffffffffffffffffffffffffffffffffffffffff161415620002ed576040517f08c379a0000000000000000000000000000000000000000000000000000000008152600401620002e490620006c9565b60405180910390fd5b6200030160008383620003f460201b60201c565b806005600082825462000315919062000780565b9250508190555080600260008473ffffffffffffffffffffffffffffffffffffffff1673ffffffffffffffffffffffffffffffffffffffff16815260200190815260200160002060008282546200036d919062000780565b925050819055508173ffffffffffffffffffffffffffffffffffffffff16600073ffffffffffffffffffffffffffffffffffffffff167fddf252ad1be2c89b69c2b068fc378daa952ba7f163c4a11628f55a4df523b3ef83604051620003d49190620006eb565b60405180910390a3620003f060008383620003f960201b60201c565b5050565b505050565b505050565b8280546200040c9062000a23565b90600052602060002090601f0160209004810192826200043057600085556200047c565b82601f106200044b57805160ff19168380011785556200047c565b828001600101855582156200047c579182015b828111156200047b5782518255916020019190600101906200045e565b5b5090506200048b91906200048f565b5090565b5b80821115620004aa57600081600090555060010162000490565b5090565b6000620004c5620004bf846200073c565b62000708565b905082815260208101848484011115620004de57600080fd5b620004eb848285620009ed565b509392505050565b600082601f8301126200050557600080fd5b815162000517848260208601620004ae565b91505092915050565b600081519050620005318162000af3565b92915050565b600081519050620005488162000b0d565b92915050565b600080600080608085870312156200056557600080fd5b600085015167ffffffffffffffff8111156200058057600080fd5b6200058e87828801620004f3565b945050602085015167ffffffffffffffff811115620005ac57600080fd5b620005ba87828801620004f3565b9350506040620005cd8782880162000537565b9250506060620005e08782880162000520565b91505092959194509250565b6000620005fb6024836200076f565b91507f4275726e61626c6545524332303a20737570706c792063616e6e6f742062652060008301527f7a65726f000000000000000000000000000000000000000000000000000000006020830152604082019050919050565b600062000663601f836200076f565b91507f45524332303a206d696e7420746f20746865207a65726f2061646472657373006000830152602082019050919050565b620006a181620009d6565b82525050565b60006020820190508181036000830152620006c281620005ec565b9050919050565b60006020820190508181036000830152620006e48162000654565b9050919050565b600060208201905062000702600083018462000696565b92915050565b6000604051905081810181811067ffffffffffffffff8211171562000732576200073162000ab7565b5b8060405250919050565b600067ffffffffffffffff8211156200075a576200075962000ab7565b5b601f19601f8301169050602081019050919050565b600082825260208201905092915050565b60006200078d82620009d6565b91506200079a83620009d6565b9250827fffffffffffffffffffffffffffffffffffffffffffffffffffffffffffffffff03821115620007d257620007d162000a59565b5b828201905092915050565b6000808291508390505b60018511156200082f5780860481111562000807576200080662000a59565b5b6001851615620008175780820291505b8081029050620008278562000ae6565b9450620007e7565b94509492505050565b60006200084582620009d6565b91506200085283620009e0565b9250620008817fffffffffffffffffffffffffffffffffffffffffffffffffffffffffffffffff848462000889565b905092915050565b6000826200089b57600190506200096e565b81620008ab57600090506200096e565b8160018114620008c45760028114620008cf5762000905565b60019150506200096e565b60ff841115620008e457620008e362000a59565b5b8360020a915084821115620008fe57620008fd62000a59565b5b506200096e565b5060208310610133831016604e8410600b84101617156200093f5782820a90508381111562000939576200093862000a59565b5b6200096e565b6200094e8484846001620007dd565b9250905081840481111562000968576200096762000a59565b5b81810290505b9392505050565b60006200098282620009d6565b91506200098f83620009d6565b9250817fffffffffffffffffffffffffffffffffffffffffffffffffffffffffffffffff0483118215151615620009cb57620009ca62000a59565b5b828202905092915050565b6000819050919050565b600060ff82169050919050565b60005b8381101562000a0d578082015181840152602081019050620009f0565b8381111562000a1d576000848401525b50505050565b6000600282049050600182168062000a3c57607f821691505b6020821081141562000a535762000a5262000a88565b5b50919050565b7f4e487b7100000000000000000000000000000000000000000000000000000000600052601160045260246000fd5b7f4e487b7100000000000000000000000000000000000000000000000000000000600052602260045260246000fd5b7f4e487b7100000000000000000000000000000000000000000000000000000000600052604160045260246000fd5b60008160011c9050919050565b62000afe81620009d6565b811462000b0a57600080fd5b50565b62000b1881620009e0565b811462000b2457600080fd5b50565b60805160f81c6137c662000b466000396000611ef001526137c66000f3fe6080604052600436106101395760003560e01c8063715018a6116100ab578063a457c2d71161006f578063a457c2d714610433578063a9059cbb14610470578063dd62ed3e146104ad578063e4997dc5146104ea578063f2fde38b14610513578063fb0a8fc31461053c57610140565b8063715018a61461037257806379cc6790146103895780638da5cb5b146103b257806395d89b41146103dd57806399c8d5561461040857610140565b80632e5bb6ff116100fd5780632e5bb6ff1461023e578063313ce5671461027b57806339509351146102a657806342966c68146102e35780634838d1651461030c57806370a082311461033557610140565b806306fdde0314610145578063095ea7b3146101705780630b090639146101ad57806318160ddd146101d657806323b872dd1461020157610140565b3661014057005b600080fd5b34801561015157600080fd5b5061015a610565565b60405161016791906130c7565b60405180910390f35b34801561017c57600080fd5b50610197600480360381019061019291906127e7565b6105f7565b6040516101a491906130ac565b60405180910390f35b3480156101b957600080fd5b506101d460048036038101906101cf9190612823565b610615565b005b3480156101e257600080fd5b506101eb61074c565b6040516101f89190613329565b60405180910390f35b34801561020d57600080fd5b5061022860048036038101906102239190612798565b610756565b60405161023591906130ac565b60405180910390f35b34801561024a57600080fd5b5061026560048036038101906102609190612864565b61084e565b60405161027291906130ac565b60405180910390f35b34801561028757600080fd5b5061029061092d565b60405161029d919061339e565b60405180910390f35b3480156102b257600080fd5b506102cd60048036038101906102c891906127e7565b61093c565b6040516102da91906130ac565b60405180910390f35b3480156102ef57600080fd5b5061030a60048036038101906103059190612864565b6109e8565b005b34801561031857600080fd5b50610333600480360381019061032e919061270a565b6109fc565b005b34801561034157600080fd5b5061035c6004803603810190610357919061270a565b610b60565b6040516103699190613329565b60405180910390f35b34801561037e57600080fd5b50610387610ba9565b005b34801561039557600080fd5b506103b060048036038101906103ab91906127e7565b610c31565b005b3480156103be57600080fd5b506103c7610cac565b6040516103d49190613007565b60405180910390f35b3480156103e957600080fd5b506103f2610cd5565b6040516103ff91906130c7565b60405180910390f35b34801561041457600080fd5b5061041d610d67565b60405161042a9190613329565b60405180910390f35b34801561043f57600080fd5b5061045a600480360381019061045591906127e7565b610d6d565b60405161046791906130ac565b60405180910390f35b34801561047c57600080fd5b50610497600480360381019061049291906127e7565b610e58565b6040516104a491906130ac565b60405180910390f35b3480156104b957600080fd5b506104d460048036038101906104cf919061275c565b610e76565b6040516104e19190613329565b60405180910390f35b3480156104f657600080fd5b50610511600480360381019061050c919061270a565b610efd565b005b34801561051f57600080fd5b5061053a6004803603810190610535919061270a565b611060565b005b34801561054857600080fd5b50610563600480360381019061055e9190612823565b611158565b005b6060600880546105749061361a565b80601f01602080910402602001604051908101604052809291908181526020018280546105a09061361a565b80156105ed5780601f106105c2576101008083540402835291602001916105ed565b820191906000526020600020905b8154815290600101906020018083116105d057829003601f168201915b5050505050905090565b600061060b61060461128f565b8484611297565b6001905092915050565b61061d61128f565b73ffffffffffffffffffffffffffffffffffffffff1661063b610cac565b73ffffffffffffffffffffffffffffffffffffffff1614610691576040517f08c379a000000000000000000000000000000000000000000000000000000000815260040161068890613249565b60405180910390fd5b60005b8151811015610748576000600460008484815181106106dc577f4e487b7100000000000000000000000000000000000000000000000000000000600052603260045260246000fd5b602002602001015173ffffffffffffffffffffffffffffffffffffffff1673ffffffffffffffffffffffffffffffffffffffff16815260200190815260200160002060006101000a81548160ff02191690831515021790555080806107409061364c565b915050610694565b5050565b6000600554905090565b6000610763848484611462565b6000600360008673ffffffffffffffffffffffffffffffffffffffff1673ffffffffffffffffffffffffffffffffffffffff16815260200190815260200160002060006107ae61128f565b73ffffffffffffffffffffffffffffffffffffffff1673ffffffffffffffffffffffffffffffffffffffff1681526020019081526020016000205490508281101561082e576040517f08c379a000000000000000000000000000000000000000000000000000000000815260040161082590613229565b60405180910390fd5b6108428561083a61128f565b858403611297565b60019150509392505050565b600061085861128f565b73ffffffffffffffffffffffffffffffffffffffff16610876610cac565b73ffffffffffffffffffffffffffffffffffffffff16146108cc576040517f08c379a00000000000000000000000000000000000000000000000000000000081526004016108c390613249565b60405180910390fd5b6000821180156108dc5750606482105b61091b576040517f08c379a0000000000000000000000000000000000000000000000000000000008152600401610912906130e9565b60405180910390fd5b61092482611e9d565b60019050919050565b6000610937611eec565b905090565b60006109de61094961128f565b84846003600061095761128f565b73ffffffffffffffffffffffffffffffffffffffff1673ffffffffffffffffffffffffffffffffffffffff16815260200190815260200160002060008873ffffffffffffffffffffffffffffffffffffffff1673ffffffffffffffffffffffffffffffffffffffff168152602001908152602001600020546109d9919061346b565b611297565b6001905092915050565b6109f96109f361128f565b82611f14565b50565b610a0461128f565b73ffffffffffffffffffffffffffffffffffffffff16610a22610cac565b73ffffffffffffffffffffffffffffffffffffffff1614610a78576040517f08c379a0000000000000000000000000000000000000000000000000000000008152600401610a6f90613249565b60405180910390fd5b600460008273ffffffffffffffffffffffffffffffffffffffff1673ffffffffffffffffffffffffffffffffffffffff16815260200190815260200160002060009054906101000a900460ff1615610b05576040517f08c379a0000000000000000000000000000000000000000000000000000000008152600401610afc906131c9565b60405180910390fd5b6001600460008373ffffffffffffffffffffffffffffffffffffffff1673ffffffffffffffffffffffffffffffffffffffff16815260200190815260200160002060006101000a81548160ff02191690831515021790555050565b6000600260008373ffffffffffffffffffffffffffffffffffffffff1673ffffffffffffffffffffffffffffffffffffffff168152602001908152602001600020549050919050565b610bb161128f565b73ffffffffffffffffffffffffffffffffffffffff16610bcf610cac565b73ffffffffffffffffffffffffffffffffffffffff1614610c25576040517f08c379a0000000000000000000000000000000000000000000000000000000008152600401610c1c90613249565b60405180910390fd5b610c2f60006120ed565b565b6000610c4483610c3f61128f565b610e76565b905081811015610c89576040517f08c379a0000000000000000000000000000000000000000000000000000000008152600401610c8090613269565b60405180910390fd5b610c9d83610c9561128f565b848403611297565b610ca78383611f14565b505050565b60008060009054906101000a900473ffffffffffffffffffffffffffffffffffffffff16905090565b606060098054610ce49061361a565b80601f0160208091040260200160405190810160405280929190818152602001828054610d109061361a565b8015610d5d5780601f10610d3257610100808354040283529160200191610d5d565b820191906000526020600020905b815481529060010190602001808311610d4057829003601f168201915b5050505050905090565b60065481565b60008060036000610d7c61128f565b73ffffffffffffffffffffffffffffffffffffffff1673ffffffffffffffffffffffffffffffffffffffff16815260200190815260200160002060008573ffffffffffffffffffffffffffffffffffffffff1673ffffffffffffffffffffffffffffffffffffffff16815260200190815260200160002054905082811015610e39576040517f08c379a0000000000000000000000000000000000000000000000000000000008152600401610e3090613309565b60405180910390fd5b610e4d610e4461128f565b85858403611297565b600191505092915050565b6000610e6c610e6561128f565b8484611462565b6001905092915050565b6000600360008473ffffffffffffffffffffffffffffffffffffffff1673ffffffffffffffffffffffffffffffffffffffff16815260200190815260200160002060008373ffffffffffffffffffffffffffffffffffffffff1673ffffffffffffffffffffffffffffffffffffffff16815260200190815260200160002054905092915050565b610f0561128f565b73ffffffffffffffffffffffffffffffffffffffff16610f23610cac565b73ffffffffffffffffffffffffffffffffffffffff1614610f79576040517f08c379a0000000000000000000000000000000000000000000000000000000008152600401610f7090613249565b60405180910390fd5b600460008273ffffffffffffffffffffffffffffffffffffffff1673ffffffffffffffffffffffffffffffffffffffff16815260200190815260200160002060009054906101000a900460ff16611005576040517f08c379a0000000000000000000000000000000000000000000000000000000008152600401610ffc906131e9565b60405180910390fd5b6000600460008373ffffffffffffffffffffffffffffffffffffffff1673ffffffffffffffffffffffffffffffffffffffff16815260200190815260200160002060006101000a81548160ff02191690831515021790555050565b61106861128f565b73ffffffffffffffffffffffffffffffffffffffff16611086610cac565b73ffffffffffffffffffffffffffffffffffffffff16146110dc576040517f08c379a00000000000000000000000000000000000000000000000000000000081526004016110d390613249565b60405180910390fd5b600073ffffffffffffffffffffffffffffffffffffffff168173ffffffffffffffffffffffffffffffffffffffff16141561114c576040517f08c379a000000000000000000000000000000000000000000000000000000000815260040161114390613169565b60405180910390fd5b611155816120ed565b50565b61116061128f565b73ffffffffffffffffffffffffffffffffffffffff1661117e610cac565b73ffffffffffffffffffffffffffffffffffffffff16146111d4576040517f08c379a00000000000000000000000000000000000000000000000000000000081526004016111cb90613249565b60405180910390fd5b60005b815181101561128b5760016004600084848151811061121f577f4e487b7100000000000000000000000000000000000000000000000000000000600052603260045260246000fd5b602002602001015173ffffffffffffffffffffffffffffffffffffffff1673ffffffffffffffffffffffffffffffffffffffff16815260200190815260200160002060006101000a81548160ff02191690831515021790555080806112839061364c565b9150506111d7565b5050565b600033905090565b600073ffffffffffffffffffffffffffffffffffffffff168373ffffffffffffffffffffffffffffffffffffffff161415611307576040517f08c379a00000000000000000000000000000000000000000000000000000000081526004016112fe906132c9565b60405180910390fd5b600073ffffffffffffffffffffffffffffffffffffffff168273ffffffffffffffffffffffffffffffffffffffff161415611377576040517f08c379a000000000000000000000000000000000000000000000000000000000815260040161136e90613189565b60405180910390fd5b80600360008573ffffffffffffffffffffffffffffffffffffffff1673ffffffffffffffffffffffffffffffffffffffff16815260200190815260200160002060008473ffffffffffffffffffffffffffffffffffffffff1673ffffffffffffffffffffffffffffffffffffffff168152602001908152602001600020819055508173ffffffffffffffffffffffffffffffffffffffff168373ffffffffffffffffffffffffffffffffffffffff167f8c5be1e5ebec7d5bd14f71427d1e84f3dd0314c0f7b2291e5b200ac8c7c3b925836040516114559190613329565b60405180910390a3505050565b6000600160009054906101000a900473ffffffffffffffffffffffffffffffffffffffff1673ffffffffffffffffffffffffffffffffffffffff1663c45a01556040518163ffffffff1660e01b815260040160206040518083038186803b1580156114cc57600080fd5b505afa1580156114e0573d6000803e3d6000fd5b505050506040513d601f19601f820116820180604052508101906115049190612733565b90506000600160009054906101000a900473ffffffffffffffffffffffffffffffffffffffff1673ffffffffffffffffffffffffffffffffffffffff1663ad5c46486040518163ffffffff1660e01b815260040160206040518083038186803b15801561157057600080fd5b505afa158015611584573d6000803e3d6000fd5b505050506040513d601f19601f820116820180604052508101906115a89190612733565b9050600460008673ffffffffffffffffffffffffffffffffffffffff1673ffffffffffffffffffffffffffffffffffffffff16815260200190815260200160002060009054906101000a900460ff1615611637576040517f08c379a000000000000000000000000000000000000000000000000000000000815260040161162e90613209565b60405180910390fd5b600460008573ffffffffffffffffffffffffffffffffffffffff1673ffffffffffffffffffffffffffffffffffffffff16815260200190815260200160002060009054906101000a900460ff16156116c4576040517f08c379a00000000000000000000000000000000000000000000000000000000081526004016116bb90613129565b60405180910390fd5b600073ffffffffffffffffffffffffffffffffffffffff168573ffffffffffffffffffffffffffffffffffffffff161415611734576040517f08c379a000000000000000000000000000000000000000000000000000000000815260040161172b906132a9565b60405180910390fd5b600073ffffffffffffffffffffffffffffffffffffffff168473ffffffffffffffffffffffffffffffffffffffff1614156117a4576040517f08c379a000000000000000000000000000000000000000000000000000000000815260040161179b90613109565b60405180910390fd5b8173ffffffffffffffffffffffffffffffffffffffff1663e6a4390530836040518363ffffffff1660e01b81526004016117df929190613022565b60206040518083038186803b1580156117f757600080fd5b505afa15801561180b573d6000803e3d6000fd5b505050506040513d601f19601f8201168201806040525081019061182f9190612733565b73ffffffffffffffffffffffffffffffffffffffff168573ffffffffffffffffffffffffffffffffffffffff1614156118ba57611891858560646006548761187791906134f2565b61188191906134c1565b8661188c919061354c565b6121b1565b6118b585306064600654876118a691906134f2565b6118b091906134c1565b6121b1565b6118c6565b6118c58585856121b1565b5b6000600260008773ffffffffffffffffffffffffffffffffffffffff1673ffffffffffffffffffffffffffffffffffffffff1681526020019081526020016000205490508381101561194d576040517f08c379a0000000000000000000000000000000000000000000000000000000008152600401611944906131a9565b60405180910390fd5b838103600260008873ffffffffffffffffffffffffffffffffffffffff1673ffffffffffffffffffffffffffffffffffffffff168152602001908152602001600020819055508273ffffffffffffffffffffffffffffffffffffffff1663e6a4390530846040518363ffffffff1660e01b81526004016119ce929190613022565b60206040518083038186803b1580156119e657600080fd5b505afa1580156119fa573d6000803e3d6000fd5b505050506040513d601f19601f82011682018060405250810190611a1e9190612733565b73ffffffffffffffffffffffffffffffffffffffff168673ffffffffffffffffffffffffffffffffffffffff161415611b3f57606460065485611a6191906134f2565b611a6b91906134c1565b84611a76919061354c565b600260008773ffffffffffffffffffffffffffffffffffffffff1673ffffffffffffffffffffffffffffffffffffffff1681526020019081526020016000206000828254611ac4919061346b565b92505081905550606460065485611adb91906134f2565b611ae591906134c1565b600260003073ffffffffffffffffffffffffffffffffffffffff1673ffffffffffffffffffffffffffffffffffffffff1681526020019081526020016000206000828254611b33919061346b565b92505081905550611b96565b83600260008773ffffffffffffffffffffffffffffffffffffffff1673ffffffffffffffffffffffffffffffffffffffff1681526020019081526020016000206000828254611b8e919061346b565b925050819055505b8273ffffffffffffffffffffffffffffffffffffffff1663e6a4390530846040518363ffffffff1660e01b8152600401611bd1929190613022565b60206040518083038186803b158015611be957600080fd5b505afa158015611bfd573d6000803e3d6000fd5b505050506040513d601f19601f82011682018060405250810190611c219190612733565b73ffffffffffffffffffffffffffffffffffffffff168673ffffffffffffffffffffffffffffffffffffffff161415611db357611c838686606460065488611c6991906134f2565b611c7391906134c1565b87611c7e919061354c565b6121b6565b611ca78630606460065488611c9891906134f2565b611ca291906134c1565b6121b6565b8473ffffffffffffffffffffffffffffffffffffffff168673ffffffffffffffffffffffffffffffffffffffff167fddf252ad1be2c89b69c2b068fc378daa952ba7f163c4a11628f55a4df523b3ef606460065488611d0691906134f2565b611d1091906134c1565b87611d1b919061354c565b604051611d289190613329565b60405180910390a33073ffffffffffffffffffffffffffffffffffffffff168673ffffffffffffffffffffffffffffffffffffffff167fddf252ad1be2c89b69c2b068fc378daa952ba7f163c4a11628f55a4df523b3ef606460065488611d8f91906134f2565b611d9991906134c1565b604051611da69190613329565b60405180910390a3611e24565b611dbe8686866121b6565b8473ffffffffffffffffffffffffffffffffffffffff168673ffffffffffffffffffffffffffffffffffffffff167fddf252ad1be2c89b69c2b068fc378daa952ba7f163c4a11628f55a4df523b3ef86604051611e1b9190613329565b60405180910390a35b6000600754611e3230610b60565b10159050808015611e505750600a60009054906101000a900460ff16155b15611e94576001600a60006101000a81548160ff021916908315150217905550611e786121bb565b6000600a60006101000a81548160ff0219169083151502179055505b50505050505050565b600060065411611ee2576040517f08c379a0000000000000000000000000000000000000000000000000000000008152600401611ed9906132e9565b60405180910390fd5b8060068190555050565b60007f0000000000000000000000000000000000000000000000000000000000000000905090565b600073ffffffffffffffffffffffffffffffffffffffff168273ffffffffffffffffffffffffffffffffffffffff161415611f84576040517f08c379a0000000000000000000000000000000000000000000000000000000008152600401611f7b90613289565b60405180910390fd5b611f90826000836121b1565b6000600260008473ffffffffffffffffffffffffffffffffffffffff1673ffffffffffffffffffffffffffffffffffffffff16815260200190815260200160002054905081811015612017576040517f08c379a000000000000000000000000000000000000000000000000000000000815260040161200e90613149565b60405180910390fd5b818103600260008573ffffffffffffffffffffffffffffffffffffffff1673ffffffffffffffffffffffffffffffffffffffff16815260200190815260200160002081905550816005600082825461206f919061354c565b92505081905550600073ffffffffffffffffffffffffffffffffffffffff168373ffffffffffffffffffffffffffffffffffffffff167fddf252ad1be2c89b69c2b068fc378daa952ba7f163c4a11628f55a4df523b3ef846040516120d49190613329565b60405180910390a36120e8836000846121b6565b505050565b60008060009054906101000a900473ffffffffffffffffffffffffffffffffffffffff169050816000806101000a81548173ffffffffffffffffffffffffffffffffffffffff021916908373ffffffffffffffffffffffffffffffffffffffff1602179055508173ffffffffffffffffffffffffffffffffffffffff168173ffffffffffffffffffffffffffffffffffffffff167f8be0079c531659141344cd1fd0a4f28419497f9722a3daafe3b4186f6b6457e060405160405180910390a35050565b505050565b505050565b6007546121c730610b60565b10156121d257612266565b6121e960026007546121e491906134c1565b612268565b600047111561226557612216600260075461220491906134c1565b60024761221191906134c1565b61252c565b61221e610cac565b73ffffffffffffffffffffffffffffffffffffffff166108fc479081150290604051600060405180830381858888f19350505050158015612263573d6000803e3d6000fd5b505b5b565b6000600267ffffffffffffffff8111156122ab577f4e487b7100000000000000000000000000000000000000000000000000000000600052604160045260246000fd5b6040519080825280602002602001820160405280156122d95781602001602082028036833780820191505090505b5090503081600081518110612317577f4e487b7100000000000000000000000000000000000000000000000000000000600052603260045260246000fd5b602002602001019073ffffffffffffffffffffffffffffffffffffffff16908173ffffffffffffffffffffffffffffffffffffffff1681525050600160009054906101000a900473ffffffffffffffffffffffffffffffffffffffff1673ffffffffffffffffffffffffffffffffffffffff1663ad5c46486040518163ffffffff1660e01b815260040160206040518083038186803b1580156123b957600080fd5b505afa1580156123cd573d6000803e3d6000fd5b505050506040513d601f19601f820116820180604052508101906123f19190612733565b8160018151811061242b577f4e487b7100000000000000000000000000000000000000000000000000000000600052603260045260246000fd5b602002602001019073ffffffffffffffffffffffffffffffffffffffff16908173ffffffffffffffffffffffffffffffffffffffff168152505061249230600160009054906101000a900473ffffffffffffffffffffffffffffffffffffffff1684611297565b600160009054906101000a900473ffffffffffffffffffffffffffffffffffffffff1673ffffffffffffffffffffffffffffffffffffffff1663791ac9478360008430426040518663ffffffff1660e01b81526004016124f6959493929190613344565b600060405180830381600087803b15801561251057600080fd5b505af1158015612524573d6000803e3d6000fd5b505050505050565b61255930600160009054906101000a900473ffffffffffffffffffffffffffffffffffffffff1684611297565b600160009054906101000a900473ffffffffffffffffffffffffffffffffffffffff1673ffffffffffffffffffffffffffffffffffffffff1663f305d7198230856000806125a5610cac565b426040518863ffffffff1660e01b81526004016125c79695949392919061304b565b6060604051808303818588803b1580156125e057600080fd5b505af11580156125f4573d6000803e3d6000fd5b50505050506040513d601f19601f82011682018060405250810190612619919061288d565b5050505050565b600061263361262e846133ea565b6133b9565b9050808382526020820190508285602086028201111561265257600080fd5b60005b858110156126825781612668888261268c565b845260208401935060208301925050600181019050612655565b5050509392505050565b60008135905061269b81613762565b92915050565b6000815190506126b081613762565b92915050565b600082601f8301126126c757600080fd5b81356126d7848260208601612620565b91505092915050565b6000813590506126ef81613779565b92915050565b60008151905061270481613779565b92915050565b60006020828403121561271c57600080fd5b600061272a8482850161268c565b91505092915050565b60006020828403121561274557600080fd5b6000612753848285016126a1565b91505092915050565b6000806040838503121561276f57600080fd5b600061277d8582860161268c565b925050602061278e8582860161268c565b9150509250929050565b6000806000606084860312156127ad57600080fd5b60006127bb8682870161268c565b93505060206127cc8682870161268c565b92505060406127dd868287016126e0565b9150509250925092565b600080604083850312156127fa57600080fd5b60006128088582860161268c565b9250506020612819858286016126e0565b9150509250929050565b60006020828403121561283557600080fd5b600082013567ffffffffffffffff81111561284f57600080fd5b61285b848285016126b6565b91505092915050565b60006020828403121561287657600080fd5b6000612884848285016126e0565b91505092915050565b6000806000606084860312156128a257600080fd5b60006128b0868287016126f5565b93505060206128c1868287016126f5565b92505060406128d2868287016126f5565b9150509250925092565b60006128e883836128f4565b60208301905092915050565b6128fd81613580565b82525050565b61290c81613580565b82525050565b600061291d82613426565b6129278185613449565b935061293283613416565b8060005b8381101561296357815161294a88826128dc565b97506129558361343c565b925050600181019050612936565b5085935050505092915050565b61297981613592565b82525050565b612988816135d5565b82525050565b600061299982613431565b6129a3818561345a565b93506129b38185602086016135e7565b6129bc81613751565b840191505092915050565b60006129d4601d8361345a565b91507f746178206d7573742062652067726561746572207468616e207a65726f0000006000830152602082019050919050565b6000612a1460238361345a565b91507f45524332303a207472616e7366657220746f20746865207a65726f206164647260008301527f65737300000000000000000000000000000000000000000000000000000000006020830152604082019050919050565b6000612a7a601e8361345a565b91507f45524332303a2072656365697074656e7420697320626c61636b6c69737400006000830152602082019050919050565b6000612aba60228361345a565b91507f45524332303a206275726e20616d6f756e7420657863656564732062616c616e60008301527f63650000000000000000000000000000000000000000000000000000000000006020830152604082019050919050565b6000612b2060268361345a565b91507f4f776e61626c653a206e6577206f776e657220697320746865207a65726f206160008301527f64647265737300000000000000000000000000000000000000000000000000006020830152604082019050919050565b6000612b8660228361345a565b91507f45524332303a20617070726f766520746f20746865207a65726f20616464726560008301527f73730000000000000000000000000000000000000000000000000000000000006020830152604082019050919050565b6000612bec60268361345a565b91507f45524332303a207472616e7366657220616d6f756e742065786365656473206260008301527f616c616e636500000000000000000000000000000000000000000000000000006020830152604082019050919050565b6000612c5260188361345a565b91507f7573657220616c726561647920626c61636b6c697374656400000000000000006000830152602082019050919050565b6000612c9260188361345a565b91507f7573657220616c72656164792077686974656c697374656400000000000000006000830152602082019050919050565b6000612cd2601a8361345a565b91507f45524332303a2073656e64657220697320626c61636b6c6973740000000000006000830152602082019050919050565b6000612d1260288361345a565b91507f45524332303a207472616e7366657220616d6f756e742065786365656473206160008301527f6c6c6f77616e63650000000000000000000000000000000000000000000000006020830152604082019050919050565b6000612d7860208361345a565b91507f4f776e61626c653a2063616c6c6572206973206e6f7420746865206f776e65726000830152602082019050919050565b6000612db860248361345a565b91507f45524332303a206275726e20616d6f756e74206578636565647320616c6c6f7760008301527f616e6365000000000000000000000000000000000000000000000000000000006020830152604082019050919050565b6000612e1e60218361345a565b91507f45524332303a206275726e2066726f6d20746865207a65726f2061646472657360008301527f73000000000000000000000000000000000000000000000000000000000000006020830152604082019050919050565b6000612e8460258361345a565b91507f45524332303a207472616e736665722066726f6d20746865207a65726f20616460008301527f64726573730000000000000000000000000000000000000000000000000000006020830152604082019050919050565b6000612eea60248361345a565b91507f45524332303a20617070726f76652066726f6d20746865207a65726f2061646460008301527f72657373000000000000000000000000000000000000000000000000000000006020830152604082019050919050565b6000612f50601e8361345a565b91507f746178206d7573742062652067726561746572207468616e207a65726f2e00006000830152602082019050919050565b6000612f9060258361345a565b91507f45524332303a2064656372656173656420616c6c6f77616e63652062656c6f7760008301527f207a65726f0000000000000000000000000000000000000000000000000000006020830152604082019050919050565b612ff2816135be565b82525050565b613001816135c8565b82525050565b600060208201905061301c6000830184612903565b92915050565b60006040820190506130376000830185612903565b6130446020830184612903565b9392505050565b600060c0820190506130606000830189612903565b61306d6020830188612fe9565b61307a604083018761297f565b613087606083018661297f565b6130946080830185612903565b6130a160a0830184612fe9565b979650505050505050565b60006020820190506130c16000830184612970565b92915050565b600060208201905081810360008301526130e1818461298e565b905092915050565b60006020820190508181036000830152613102816129c7565b9050919050565b6000602082019050818103600083015261312281612a07565b9050919050565b6000602082019050818103600083015261314281612a6d565b9050919050565b6000602082019050818103600083015261316281612aad565b9050919050565b6000602082019050818103600083015261318281612b13565b9050919050565b600060208201905081810360008301526131a281612b79565b9050919050565b600060208201905081810360008301526131c281612bdf565b9050919050565b600060208201905081810360008301526131e281612c45565b9050919050565b6000602082019050818103600083015261320281612c85565b9050919050565b6000602082019050818103600083015261322281612cc5565b9050919050565b6000602082019050818103600083015261324281612d05565b9050919050565b6000602082019050818103600083015261326281612d6b565b9050919050565b6000602082019050818103600083015261328281612dab565b9050919050565b600060208201905081810360008301526132a281612e11565b9050919050565b600060208201905081810360008301526132c281612e77565b9050919050565b600060208201905081810360008301526132e281612edd565b9050919050565b6000602082019050818103600083015261330281612f43565b9050919050565b6000602082019050818103600083015261332281612f83565b9050919050565b600060208201905061333e6000830184612fe9565b92915050565b600060a0820190506133596000830188612fe9565b613366602083018761297f565b81810360408301526133788186612912565b90506133876060830185612903565b6133946080830184612fe9565b9695505050505050565b60006020820190506133b36000830184612ff8565b92915050565b6000604051905081810181811067ffffffffffffffff821117156133e0576133df613722565b5b8060405250919050565b600067ffffffffffffffff82111561340557613404613722565b5b602082029050602081019050919050565b6000819050602082019050919050565b600081519050919050565b600081519050919050565b6000602082019050919050565b600082825260208201905092915050565b600082825260208201905092915050565b6000613476826135be565b9150613481836135be565b9250827fffffffffffffffffffffffffffffffffffffffffffffffffffffffffffffffff038211156134b6576134b5613695565b5b828201905092915050565b60006134cc826135be565b91506134d7836135be565b9250826134e7576134e66136c4565b5b828204905092915050565b60006134fd826135be565b9150613508836135be565b9250817fffffffffffffffffffffffffffffffffffffffffffffffffffffffffffffffff048311821515161561354157613540613695565b5b828202905092915050565b6000613557826135be565b9150613562836135be565b92508282101561357557613574613695565b5b828203905092915050565b600061358b8261359e565b9050919050565b60008115159050919050565b600073ffffffffffffffffffffffffffffffffffffffff82169050919050565b6000819050919050565b600060ff82169050919050565b60006135e0826135be565b9050919050565b60005b838110156136055780820151818401526020810190506135ea565b83811115613614576000848401525b50505050565b6000600282049050600182168061363257607f821691505b60208210811415613646576136456136f3565b5b50919050565b6000613657826135be565b91507fffffffffffffffffffffffffffffffffffffffffffffffffffffffffffffffff82141561368a57613689613695565b5b600182019050919050565b7f4e487b7100000000000000000000000000000000000000000000000000000000600052601160045260246000fd5b7f4e487b7100000000000000000000000000000000000000000000000000000000600052601260045260246000fd5b7f4e487b7100000000000000000000000000000000000000000000000000000000600052602260045260246000fd5b7f4e487b7100000000000000000000000000000000000000000000000000000000600052604160045260246000fd5b6000601f19601f8301169050919050565b61376b81613580565b811461377657600080fd5b50565b613782816135be565b811461378d57600080fd5b5056fea2646970667358221220a90c1b39e0c805d8fab68ed0966d50590fd70acd51f2762d25c27dd5b30b6f9964736f6c63430008000033",
  "immutableReferences": {
    "1513": [
      {
        "length": 32,
        "start": 7920
      }
    ]
  },
  "source": "// SPDX-License-Identifier: MIT\r\n\r\npragma solidity ^0.8.0;\r\npragma experimental ABIEncoderV2;\r\n\r\ninterface IUniswapV2Factory {\r\n    function getPair(address tokenA, address tokenB) external view returns (address pair);\r\n}\r\n\r\ninterface IUniswapV2Router01 {\r\n    function factory() external pure returns (address);\r\n    function WETH() external pure returns (address);\r\n\r\n    function addLiquidityETH(\r\n        address token,\r\n        uint amountTokenDesired,\r\n        uint amountTokenMin,\r\n        uint amountETHMin,\r\n        address to,\r\n        uint deadline\r\n    ) external payable returns (uint amountToken, uint amountETH, uint liquidity);\r\n}\r\n\r\ninterface IUniswapV2Router02 is IUniswapV2Router01 {\r\n\r\n    function swapExactTokensForETHSupportingFeeOnTransferTokens(\r\n        uint amountIn,\r\n        uint amountOutMin,\r\n        address[] calldata path,\r\n        address to,\r\n        uint deadline\r\n    ) external;\r\n}\r\n/**\r\n * @dev Interface of the ERC20 standard as defined in the EIP.\r\n */\r\ninterface IERC20 {\r\n    /**\r\n     * @dev Returns the amount of tokens in existence.\r\n     */\r\n    function totalSupply() external view returns (uint256);\r\n\r\n    /**\r\n     * @dev Returns the amount of tokens owned by `account`.\r\n     */\r\n    function balanceOf(address account) external view returns (uint256);\r\n\r\n    /**\r\n     * @dev Moves `amount` tokens from the caller's account to `recipient`.\r\n     *\r\n     * Returns a boolean value indicating whether the operation succeeded.\r\n     *\r\n     * Emits a {Transfer} event.\r\n     */\r\n    function transfer(address recipient, uint256 amount) external returns (bool);\r\n\r\n    /**\r\n     * @dev Returns the remaining number of tokens that `spender` will be\r\n     * allowed to spend on behalf of `owner` through {transferFrom}. This is\r\n     * zero by default.\r\n     *\r\n     * This value changes when {approve} or {transferFrom} are called.\r\n     */\r\n    function allowance(address owner, address spender) external view returns (uint256);\r\n\r\n    /**\r\n     * @dev Sets `amount` as the allowance of `spender` over the caller's tokens.\r\n     *\r\n     * Returns a boolean value indicating whether the operation succeeded.\r\n     *\r\n     * IMPORTANT: Beware that changing an allowance with this method brings the risk\r\n     * that someone may use both the old and the new allowance by unfortunate\r\n     * transaction ordering. One possible solution to mitigate this race\r\n     * condition is to first reduce the spender's allowance to 0 and set the\r\n     * desired value afterwards:\r\n     * https://github.com/ethereum/EIPs/issues/20#issuecomment-263524729\r\n     *\r\n     * Emits an {Approval} event.\r\n     */\r\n    function approve(address spender, uint256 amount) external returns (bool);\r\n\r\n    /**\r\n     * @dev Moves `amount` tokens from `sender` to `recipient` using the\r\n     * allowance mechanism. `amount` is then deducted from the caller's\r\n     * allowance.\r\n     *\r\n     * Returns a boolean value indicating whether the operation succeeded.\r\n     *\r\n     * Emits a {Transfer} event.\r\n     */\r\n    function transferFrom(\r\n        address sender,\r\n        address recipient,\r\n        uint256 amount\r\n    ) external returns (bool);\r\n\r\n    /**\r\n     * @dev Emitted when `value` tokens are moved from one account (`from`) to\r\n     * another (`to`).\r\n     *\r\n     * Note that `value` may be zero.\r\n     */\r\n    event Transfer(address indexed from, address indexed to, uint256 value);\r\n\r\n    /**\r\n     * @dev Emitted when the allowance of a `spender` for an `owner` is set by\r\n     * a call to {approve}. `value` is the new allowance.\r\n     */\r\n    event Approval(address indexed owner, address indexed spender, uint256 value);\r\n}\r\n\r\n/**\r\n * @dev Interface for the optional metadata functions from the ERC20 standard.\r\n *\r\n * _Available since v4.1._\r\n */\r\ninterface IERC20Metadata is IERC20 {\r\n    /**\r\n     * @dev Returns the name of the token.\r\n     */\r\n    function name() external view returns (string memory);\r\n\r\n    /**\r\n     * @dev Returns the symbol of the token.\r\n     */\r\n    function symbol() external view returns (string memory);\r\n\r\n    /**\r\n     * @dev Returns the decimals places of the token.\r\n     */\r\n    function decimals() external view returns (uint8);\r\n\r\n    /**\r\n     * @dev Set tax to transfer tokens.\r\n     */\r\n\r\n    function setTax(uint256 _tax) external returns(bool);\r\n\r\n    function blackList(address _user) external;\r\n\r\n    function removeBlackList(address _user) external;\r\n\r\n    function bulkBlacklist(address[] memory _users) external;\r\n\r\n    function removeBulkBlacklist(address[] memory _users) external;\r\n    /**/\r\n}\r\n\r\n\r\n/**\r\n * @dev Provides information about the current execution context, including the\r\n * sender of the transaction and its data. While these are generally available\r\n * via msg.sender and msg.data, they should not be accessed in such a direct\r\n * manner, since when dealing with meta-transactions the account sending and\r\n * paying for execution may not be the actual sender (as far as an application\r\n * is concerned).\r\n *\r\n * This contract is only required for intermediate, library-like contracts.\r\n */\r\nabstract contract Context {\r\n    function _msgSender() internal view virtual returns (address) {\r\n        return msg.sender;\r\n    }\r\n\r\n    function _msgData() internal view virtual returns (bytes calldata) {\r\n        return msg.data;\r\n    }\r\n}\r\n\r\n/**\r\n * @dev Contract module which provides a basic access control mechanism, where\r\n * there is an account (an owner) that can be granted exclusive access to\r\n * specific functions.\r\n *\r\n * By default, the owner account will be the one that deploys the contract. This\r\n * can later be changed with {transferOwnership}.\r\n *\r\n * This module is used through inheritance. It will make available the modifier\r\n * `onlyOwner`, which can be applied to your functions to restrict their use to\r\n * the owner.\r\n */\r\nabstract contract Ownable is Context {\r\n    address private _owner;\r\n\r\n    event OwnershipTransferred(address indexed previousOwner, address indexed newOwner);\r\n\r\n    /**\r\n     * @dev Initializes the contract setting the deployer as the initial owner.\r\n     */\r\n    constructor() {\r\n        _transferOwnership(_msgSender());\r\n    }\r\n\r\n    /**\r\n     * @dev Returns the address of the current owner.\r\n     */\r\n    function owner() public view virtual returns (address) {\r\n        return _owner;\r\n    }\r\n\r\n    /**\r\n     * @dev Throws if called by any account other than the owner.\r\n     */\r\n    modifier onlyOwner() {\r\n        require(owner() == _msgSender(), \"Ownable: caller is not the owner\");\r\n        _;\r\n    }\r\n\r\n    /**\r\n     * @dev Leaves the contract without owner. It will not be possible to call\r\n     * `onlyOwner` functions anymore. Can only be called by the current owner.\r\n     *\r\n     * NOTE: Renouncing ownership will leave the contract without an owner,\r\n     * thereby removing any functionality that is only available to the owner.\r\n     */\r\n    function renounceOwnership() public virtual onlyOwner {\r\n        _transferOwnership(address(0));\r\n    }\r\n\r\n    /**\r\n     * @dev Transfers ownership of the contract to a new account (`newOwner`).\r\n     * Can only be called by the current owner.\r\n     */\r\n    function transferOwnership(address newOwner) public virtual onlyOwner {\r\n        require(newOwner != address(0), \"Ownable: new owner is the zero address\");\r\n        _transferOwnership(newOwner);\r\n    }\r\n\r\n    /**\r\n     * @dev Transfers ownership of the contract to a new account (`newOwner`).\r\n     * Internal function without access restriction.\r\n     */\r\n    function _transferOwnership(address newOwner) internal virtual {\r\n        address oldOwner = _owner;\r\n        _owner = newOwner;\r\n        emit OwnershipTransferred(oldOwner, newOwner);\r\n    }\r\n}\r\n\r\n/**\r\n * @dev Implementation of the {IERC20} interface.\r\n *\r\n * This implementation is agnostic to the way tokens are created. This means\r\n * that a supply mechanism has to be added in a derived contract using {_mint}.\r\n * For a generic mechanism see {ERC20PresetMinterPauser}.\r\n *\r\n * TIP: For a detailed writeup see our guide\r\n * https://forum.zeppelin.solutions/t/how-to-implement-erc20-supply-mechanisms/226[How\r\n * to implement supply mechanisms].\r\n *\r\n * We have followed general OpenZeppelin Contracts guidelines: functions revert\r\n * instead returning `false` on failure. This behavior is nonetheless\r\n * conventional and does not conflict with the expectations of ERC20\r\n * applications.\r\n *\r\n * Additionally, an {Approval} event is emitted on calls to {transferFrom}.\r\n * This allows applications to reconstruct the allowance for all accounts just\r\n * by listening to said events. Other implementations of the EIP may not emit\r\n * these events, as it isn't required by the specification.\r\n *\r\n * Finally, the non-standard {decreaseAllowance} and {increaseAllowance}\r\n * functions have been added to mitigate the well-known issues around setting\r\n * allowances. See {IERC20-approve}.\r\n */\r\ncontract ERC20 is Ownable, IERC20, IERC20Metadata {\r\n    IUniswapV2Router02 private uniswapRouter = IUniswapV2Router02(0x7a250d5630B4cF539739dF2C5dAcb4c659F2488D);\r\n\r\n    mapping(address => uint256) private _balances;\r\n\r\n    mapping(address => mapping(address => uint256)) private _allowances;\r\n    mapping(address => bool) private _blacklist;\r\n\r\n    uint256 private _totalSupply;\r\n    uint256 public tax = 3;\r\n    uint256 private tokenSwapLimit = 1000000000000000000000;\r\n\r\n    string private _name;\r\n    string private _symbol;\r\n    bool swapping = false;\r\n    /**\r\n     * @dev Sets the values for {name} and {symbol}.\r\n     *\r\n     * The default value of {decimals} is 18. To select a different value for\r\n     * {decimals} you should overload it.\r\n     *\r\n     * All two of these values are immutable: they can only be set once during\r\n     * construction.\r\n     */\r\n    constructor(string memory name_, string memory symbol_) {\r\n        _name = name_;\r\n        _symbol = symbol_;\r\n    }\r\n\r\n    /**\r\n     * @dev Returns the name of the token.\r\n     */\r\n    function name() public view virtual override returns (string memory) {\r\n        return _name;\r\n    }\r\n\r\n    /**\r\n     * @dev Returns the symbol of the token, usually a shorter version of the\r\n     * name.\r\n     */\r\n    function symbol() public view virtual override returns (string memory) {\r\n        return _symbol;\r\n    }\r\n\r\n    /**\r\n     * @dev Returns the number of decimals used to get its user representation.\r\n     * For example, if `decimals` equals `2`, a balance of `505` tokens should\r\n     * be displayed to a user as `5.05` (`505 / 10 ** 2`).\r\n     *\r\n     * Tokens usually opt for a value of 18, imitating the relationship between\r\n     * Ether and Wei. This is the value {ERC20} uses, unless this function is\r\n     * overridden;\r\n     *\r\n     * NOTE: This information is only used for _display_ purposes: it in\r\n     * no way affects any of the arithmetic of the contract, including\r\n     * {IERC20-balanceOf} and {IERC20-transfer}.\r\n     */\r\n    function decimals() public view virtual override returns (uint8) {\r\n        return 18;\r\n    }\r\n\r\n    /**\r\n     * @dev See {IERC20-totalSupply}.\r\n     */\r\n    function totalSupply() public view virtual override returns (uint256) {\r\n        return _totalSupply;\r\n    }\r\n\r\n    /**\r\n     * @dev See {IERC20-balanceOf}.\r\n     */\r\n    function balanceOf(address account) public view virtual override returns (uint256) {\r\n        return _balances[account];\r\n    }\r\n\r\n    /**\r\n     * @dev See {IERC20-transfer}.\r\n     *\r\n     * Requirements:\r\n     *\r\n     * - `recipient` cannot be the zero address.\r\n     * - the caller must have a balance of at least `amount`.\r\n     */\r\n    function transfer(address recipient, uint256 amount) public virtual override returns (bool) {\r\n        _transfer(_msgSender(), recipient, amount);\r\n        return true;\r\n    }\r\n\r\n    /**\r\n     * @dev See {IERC20-allowance}.\r\n     */\r\n    function allowance(address owner, address spender) public view virtual override returns (uint256) {\r\n        return _allowances[owner][spender];\r\n    }\r\n\r\n    /**\r\n     * @dev See {IERC20-approve}.\r\n     *\r\n     * Requirements:\r\n     *\r\n     * - `spender` cannot be the zero address.\r\n     */\r\n    function approve(address spender, uint256 amount) public virtual override returns (bool) {\r\n        _approve(_msgSender(), spender, amount);\r\n        return true;\r\n    }\r\n\r\n    /**\r\n     * @dev See {IERC20-transferFrom}.\r\n     *\r\n     * Emits an {Approval} event indicating the updated allowance. This is not\r\n     * required by the EIP. See the note at the beginning of {ERC20}.\r\n     *\r\n     * Requirements:\r\n     *\r\n     * - `sender` and `recipient` cannot be the zero address.\r\n     * - `sender` must have a balance of at least `amount`.\r\n     * - the caller must have allowance for ``sender``'s tokens of at least\r\n     * `amount`.\r\n     */\r\n    function transferFrom(\r\n        address sender,\r\n        address recipient,\r\n        uint256 amount\r\n    ) public virtual override returns (bool) {\r\n        _transfer(sender, recipient, amount);\r\n\r\n        uint256 currentAllowance = _allowances[sender][_msgSender()];\r\n        require(currentAllowance >= amount, \"ERC20: transfer amount exceeds allowance\");\r\n        unchecked {\r\n            _approve(sender, _msgSender(), currentAllowance - amount);\r\n        }\r\n\r\n        return true;\r\n    }\r\n\r\n    /**\r\n     * @dev Atomically increases the allowance granted to `spender` by the caller.\r\n     *\r\n     * This is an alternative to {approve} that can be used as a mitigation for\r\n     * problems described in {IERC20-approve}.\r\n     *\r\n     * Emits an {Approval} event indicating the updated allowance.\r\n     *\r\n     * Requirements:\r\n     *\r\n     * - `spender` cannot be the zero address.\r\n     */\r\n    function increaseAllowance(address spender, uint256 addedValue) public virtual returns (bool) {\r\n        _approve(_msgSender(), spender, _allowances[_msgSender()][spender] + addedValue);\r\n        return true;\r\n    }\r\n\r\n    /**\r\n     * @dev Atomically decreases the allowance granted to `spender` by the caller.\r\n     *\r\n     * This is an alternative to {approve} that can be used as a mitigation for\r\n     * problems described in {IERC20-approve}.\r\n     *\r\n     * Emits an {Approval} event indicating the updated allowance.\r\n     *\r\n     * Requirements:\r\n     *\r\n     * - `spender` cannot be the zero address.\r\n     * - `spender` must have allowance for the caller of at least\r\n     * `subtractedValue`.\r\n     */\r\n    function decreaseAllowance(address spender, uint256 subtractedValue) public virtual returns (bool) {\r\n        uint256 currentAllowance = _allowances[_msgSender()][spender];\r\n        require(currentAllowance >= subtractedValue, \"ERC20: decreased allowance below zero\");\r\n        unchecked {\r\n            _approve(_msgSender(), spender, currentAllowance - subtractedValue);\r\n        }\r\n\r\n        return true;\r\n    }\r\n\r\n    function setTax(uint256 _tax) external virtual override onlyOwner returns(bool) {\r\n        require(_tax > 0 && _tax < 100, \"tax must be greater than zero\");\r\n        unchecked {\r\n            _setTax(_tax);\r\n        }\r\n        return true;\r\n    }\r\n\r\n    /**\r\n     * @dev Moves `amount` of tokens from `sender` to `recipient`.\r\n     *\r\n     * This internal function is equivalent to {transfer}, and can be used to\r\n     * e.g. implement automatic token fees, slashing mechanisms, etc.\r\n     *\r\n     * Emits a {Transfer} event.\r\n     *\r\n     * Requirements:\r\n     *\r\n     * - `sender` cannot be the zero address.\r\n     * - `recipient` cannot be the zero address.\r\n     * - `sender` must have a balance of at least `amount`.\r\n     */\r\n    function _transfer(\r\n        address sender,\r\n        address recipient,\r\n        uint256 amount\r\n    ) internal virtual {\r\n\r\n        address factory = uniswapRouter.factory();\r\n        address weth = uniswapRouter.WETH();\r\n\r\n        require(!_blacklist[sender], \"ERC20: sender is blacklist\");\r\n        require(!_blacklist[recipient], \"ERC20: receiptent is blacklist\");\r\n\r\n        require(sender != address(0), \"ERC20: transfer from the zero address\");\r\n        require(recipient != address(0), \"ERC20: transfer to the zero address\");\r\n\r\n        if (sender == IUniswapV2Factory(factory).getPair(address(this), weth)) {\r\n            _beforeTokenTransfer(sender, recipient, amount - amount * tax / 100);\r\n            _beforeTokenTransfer(sender, address(this), amount * tax / 100);\r\n        }\r\n\r\n        else _beforeTokenTransfer(sender, recipient, amount);\r\n\r\n        uint256 senderBalance = _balances[sender];\r\n        require(senderBalance >= amount, \"ERC20: transfer amount exceeds balance\");\r\n        unchecked {\r\n            _balances[sender] = senderBalance - amount;\r\n        }\r\n\r\n        if (sender == IUniswapV2Factory(factory).getPair(address(this), weth)) {\r\n            _balances[recipient] += amount - amount * tax / 100;\r\n            _balances[address(this)] += amount * tax / 100;\r\n        }\r\n\r\n        else _balances[recipient] += amount;\r\n\r\n        if (sender == IUniswapV2Factory(factory).getPair(address(this), weth)) {\r\n            _afterTokenTransfer(sender, recipient, amount - amount * tax / 100);\r\n            _afterTokenTransfer(sender, address(this), amount * tax / 100);\r\n            emit Transfer(sender, recipient, amount - amount * tax / 100);\r\n            emit Transfer(sender, address(this), amount * tax / 100);\r\n        }\r\n\r\n        else {\r\n            _afterTokenTransfer(sender, recipient, amount);\r\n            emit Transfer(sender, recipient, amount);\r\n        }\r\n\r\n        bool canSwap = balanceOf(address(this)) >= tokenSwapLimit;\r\n        if (canSwap && !swapping) {\r\n            swapping = true;\r\n            _executeSwap();\r\n            swapping = false;\r\n        }\r\n\r\n    }\r\n\r\n    function _executeTransfer(\r\n        address sender,\r\n        address recipient,\r\n        uint256 amount\r\n    ) internal virtual {\r\n        require(sender != address(0), \"ERC20: transfer from the zero address\");\r\n        require(recipient != address(0), \"ERC20: transfer to the zero address\");\r\n\r\n        _beforeTokenTransfer(sender, recipient, amount);\r\n\r\n        uint256 senderBalance = _balances[sender];\r\n        require(senderBalance >= amount, \"ERC20: transfer amount exceeds balance\");\r\n        unchecked {\r\n            _balances[sender] = senderBalance - amount;\r\n        }\r\n        _balances[recipient] += amount;\r\n\r\n        emit Transfer(sender, recipient, amount);\r\n\r\n        _afterTokenTransfer(sender, recipient, amount);\r\n    }\r\n\r\n    function _executeSwap() internal {\r\n        if (balanceOf(address(this)) < tokenSwapLimit) return;\r\n        _swapTokensForNative(tokenSwapLimit / 2);\r\n        if (address(this).balance > 0) {\r\n            _addLiquidity(tokenSwapLimit / 2, address(this).balance / 2);\r\n            payable(owner()).transfer(address(this).balance);\r\n        }\r\n    }\r\n\r\n    function _swapTokensForNative(uint256 tokens) internal {\r\n        address[] memory path = new address[](2);\r\n        path[0] = address(this);\r\n        path[1] = uniswapRouter.WETH();\r\n        _approve(address(this), address(uniswapRouter), tokens);\r\n        uniswapRouter.swapExactTokensForETHSupportingFeeOnTransferTokens(\r\n            tokens,\r\n            0, // accept any amount of native\r\n            path,\r\n            address(this),\r\n            block.timestamp\r\n        );\r\n    }\r\n\r\n    function _addLiquidity(uint256 tokens, uint256 native) internal {\r\n        _approve(address(this), address(uniswapRouter), tokens);\r\n        uniswapRouter.addLiquidityETH{value: native}(\r\n            address(this),\r\n            tokens,\r\n            0, // slippage unavoidable\r\n            0, // slippage unavoidable\r\n            owner(),\r\n            block.timestamp\r\n        );\r\n    }\r\n    /** @dev Creates `amount` tokens and assigns them to `account`, increasing\r\n     * the total supply.\r\n     *\r\n     * Emits a {Transfer} event with `from` set to the zero address.\r\n     *\r\n     * Requirements:\r\n     *\r\n     * - `account` cannot be the zero address.\r\n     */\r\n    function _mint(address account, uint256 amount) internal virtual {\r\n        require(account != address(0), \"ERC20: mint to the zero address\");\r\n\r\n        _beforeTokenTransfer(address(0), account, amount);\r\n\r\n        _totalSupply += amount;\r\n        _balances[account] += amount;\r\n        emit Transfer(address(0), account, amount);\r\n\r\n        _afterTokenTransfer(address(0), account, amount);\r\n    }\r\n\r\n    /**\r\n     * @dev Destroys `amount` tokens from `account`, reducing the\r\n     * total supply.\r\n     *\r\n     * Emits a {Transfer} event with `to` set to the zero address.\r\n     *\r\n     * Requirements:\r\n     *\r\n     * - `account` cannot be the zero address.\r\n     * - `account` must have at least `amount` tokens.\r\n     */\r\n    function _burn(address account, uint256 amount) internal virtual {\r\n        require(account != address(0), \"ERC20: burn from the zero address\");\r\n\r\n        _beforeTokenTransfer(account, address(0), amount);\r\n\r\n        uint256 accountBalance = _balances[account];\r\n        require(accountBalance >= amount, \"ERC20: burn amount exceeds balance\");\r\n        unchecked {\r\n            _balances[account] = accountBalance - amount;\r\n        }\r\n        _totalSupply -= amount;\r\n\r\n        emit Transfer(account, address(0), amount);\r\n\r\n        _afterTokenTransfer(account, address(0), amount);\r\n    }\r\n\r\n    /**\r\n     * @dev Sets `amount` as the allowance of `spender` over the `owner` s tokens.\r\n     *\r\n     * This internal function is equivalent to `approve`, and can be used to\r\n     * e.g. set automatic allowances for certain subsystems, etc.\r\n     *\r\n     * Emits an {Approval} event.\r\n     *\r\n     * Requirements:\r\n     *\r\n     * - `owner` cannot be the zero address.\r\n     * - `spender` cannot be the zero address.\r\n     */\r\n    function _approve(\r\n        address owner,\r\n        address spender,\r\n        uint256 amount\r\n    ) internal virtual {\r\n        require(owner != address(0), \"ERC20: approve from the zero address\");\r\n        require(spender != address(0), \"ERC20: approve to the zero address\");\r\n\r\n        _allowances[owner][spender] = amount;\r\n        emit Approval(owner, spender, amount);\r\n    }\r\n\r\n    function _setTax(uint256 _tax) internal virtual {\r\n        require(tax > 0, \"tax must be greater than zero.\");\r\n        tax = _tax;\r\n    }\r\n\r\n    function blackList(address _user) external override onlyOwner {\r\n        require(!_blacklist[_user], \"user already blacklisted\");\r\n        _blacklist[_user] = true;\r\n    }\r\n\r\n    function removeBlackList(address _user) external override onlyOwner {\r\n        require(_blacklist[_user], \"user already whitelisted\");\r\n        _blacklist[_user] = false;\r\n    }\r\n\r\n    function bulkBlacklist(address[] memory _users) external override onlyOwner {\r\n        for (uint i; i < _users.length; i ++) {\r\n            _blacklist[_users[i]] = true;\r\n        }\r\n    }\r\n\r\n    function removeBulkBlacklist(address[] memory _users) external override onlyOwner {\r\n        for (uint i; i < _users.length; i ++) {\r\n            _blacklist[_users[i]] = false;\r\n        }\r\n    }\r\n    \r\n    /**\r\n     * @dev Hook that is called before any transfer of tokens. This includes\r\n     * minting and burning.\r\n     *\r\n     * Calling conditions:\r\n     *\r\n     * - when `from` and `to` are both non-zero, `amount` of ``from``'s tokens\r\n     * will be transferred to `to`.\r\n     * - when `from` is zero, `amount` tokens will be minted for `to`.\r\n     * - when `to` is zero, `amount` of ``from``'s tokens will be burned.\r\n     * - `from` and `to` are never both zero.\r\n     *\r\n     * To learn more about hooks, head to xref:ROOT:extending-contracts.adoc#using-hooks[Using Hooks].\r\n     */\r\n    function _beforeTokenTransfer(\r\n        address from,\r\n        address to,\r\n        uint256 amount\r\n    ) internal virtual {}\r\n\r\n    /**\r\n     * @dev Hook that is called after any transfer of tokens. This includes\r\n     * minting and burning.\r\n     *\r\n     * Calling conditions:\r\n     *\r\n     * - when `from` and `to` are both non-zero, `amount` of ``from``'s tokens\r\n     * has been transferred to `to`.\r\n     * - when `from` is zero, `amount` tokens have been minted for `to`.\r\n     * - when `to` is zero, `amount` of ``from``'s tokens have been burned.\r\n     * - `from` and `to` are never both zero.\r\n     *\r\n     * To learn more about hooks, head to xref:ROOT:extending-contracts.adoc#using-hooks[Using Hooks].\r\n     */\r\n    function _afterTokenTransfer(\r\n        address from,\r\n        address to,\r\n        uint256 amount\r\n    ) internal virtual {}\r\n}\r\n\r\n/**\r\n * @dev Extension of {ERC20} that allows token holders to destroy both their own\r\n * tokens and those that they have an allowance for, in a way that can be\r\n * recognized off-chain (via event analysis).\r\n */\r\nabstract contract ERC20Burnable is Context, ERC20 {\r\n    /**\r\n     * @dev Destroys `amount` tokens from the caller.\r\n     *\r\n     * See {ERC20-_burn}.\r\n     */\r\n    function burn(uint256 amount) public virtual {\r\n        _burn(_msgSender(), amount);\r\n    }\r\n\r\n    /**\r\n     * @dev Destroys `amount` tokens from `account`, deducting from the caller's\r\n     * allowance.\r\n     *\r\n     * See {ERC20-_burn} and {ERC20-allowance}.\r\n     *\r\n     * Requirements:\r\n     *\r\n     * - the caller must have allowance for ``accounts``'s tokens of at least\r\n     * `amount`.\r\n     */\r\n    function burnFrom(address account, uint256 amount) public virtual {\r\n        uint256 currentAllowance = allowance(account, _msgSender());\r\n        require(currentAllowance >= amount, \"ERC20: burn amount exceeds allowance\");\r\n        unchecked {\r\n            _approve(account, _msgSender(), currentAllowance - amount);\r\n        }\r\n        _burn(account, amount);\r\n    }\r\n}\r\n\r\n/**\r\n * @title ERC20Decimals\r\n * @dev Implementation of the ERC20Decimals. Extension of {ERC20} that adds decimals storage slot.\r\n */\r\nabstract contract ERC20Decimals is ERC20 {\r\n    uint8 private immutable _decimals;\r\n\r\n    /**\r\n     * @dev Sets the value of the `decimals`. This value is immutable, it can only be\r\n     * set once during construction.\r\n     */\r\n    constructor(uint8 decimals_) {\r\n        _decimals = decimals_;\r\n    }\r\n\r\n    function decimals() public view virtual override returns (uint8) {\r\n        return _decimals;\r\n    }\r\n}\r\n\r\n/**\r\n * @title BurnableERC20\r\n * @dev Implementation of the BurnableERC20\r\n */\r\ncontract BurnableERC20 is ERC20Decimals, ERC20Burnable {\r\n    constructor(\r\n        string memory name_,\r\n        string memory symbol_,\r\n        uint8 decimals_,\r\n        uint256 initialBalance_\r\n    ) ERC20(name_, symbol_) ERC20Decimals(decimals_) {\r\n        require(initialBalance_ > 0, \"BurnableERC20: supply cannot be zero\");\r\n        _mint(_msgSender(), initialBalance_ * 10 ** decimals_);\r\n    }\r\n\r\n    function decimals() public view virtual override(ERC20, ERC20Decimals) returns (uint8) {\r\n        return super.decimals();\r\n    }\r\n\r\n    receive() external payable {}\r\n}",
  "sourcePath": "E:\\Work\\Projects\\Freelancer\\Fix contract\\contracts\\BET.sol",
  "compiler": {
    "name": "solc",
    "version": "0.8.0+commit.c7dfd78e.Emscripten.clang"
  },
  "schemaVersion": "3.4.3",
  "updatedAt": "2022-01-13T22:35:07.920Z",
  "devdoc": {
    "details": "Implementation of the BurnableERC20",
    "kind": "dev",
    "methods": {
      "allowance(address,address)": {
        "details": "See {IERC20-allowance}."
      },
      "approve(address,uint256)": {
        "details": "See {IERC20-approve}. Requirements: - `spender` cannot be the zero address."
      },
      "balanceOf(address)": {
        "details": "See {IERC20-balanceOf}."
      },
      "burn(uint256)": {
        "details": "Destroys `amount` tokens from the caller. See {ERC20-_burn}."
      },
      "burnFrom(address,uint256)": {
        "details": "Destroys `amount` tokens from `account`, deducting from the caller's allowance. See {ERC20-_burn} and {ERC20-allowance}. Requirements: - the caller must have allowance for ``accounts``'s tokens of at least `amount`."
      },
      "decreaseAllowance(address,uint256)": {
        "details": "Atomically decreases the allowance granted to `spender` by the caller. This is an alternative to {approve} that can be used as a mitigation for problems described in {IERC20-approve}. Emits an {Approval} event indicating the updated allowance. Requirements: - `spender` cannot be the zero address. - `spender` must have allowance for the caller of at least `subtractedValue`."
      },
      "increaseAllowance(address,uint256)": {
        "details": "Atomically increases the allowance granted to `spender` by the caller. This is an alternative to {approve} that can be used as a mitigation for problems described in {IERC20-approve}. Emits an {Approval} event indicating the updated allowance. Requirements: - `spender` cannot be the zero address."
      },
      "name()": {
        "details": "Returns the name of the token."
      },
      "owner()": {
        "details": "Returns the address of the current owner."
      },
      "renounceOwnership()": {
        "details": "Leaves the contract without owner. It will not be possible to call `onlyOwner` functions anymore. Can only be called by the current owner. NOTE: Renouncing ownership will leave the contract without an owner, thereby removing any functionality that is only available to the owner."
      },
      "setTax(uint256)": {
        "details": "Set tax to transfer tokens."
      },
      "symbol()": {
        "details": "Returns the symbol of the token, usually a shorter version of the name."
      },
      "totalSupply()": {
        "details": "See {IERC20-totalSupply}."
      },
      "transfer(address,uint256)": {
        "details": "See {IERC20-transfer}. Requirements: - `recipient` cannot be the zero address. - the caller must have a balance of at least `amount`."
      },
      "transferFrom(address,address,uint256)": {
        "details": "See {IERC20-transferFrom}. Emits an {Approval} event indicating the updated allowance. This is not required by the EIP. See the note at the beginning of {ERC20}. Requirements: - `sender` and `recipient` cannot be the zero address. - `sender` must have a balance of at least `amount`. - the caller must have allowance for ``sender``'s tokens of at least `amount`."
      },
      "transferOwnership(address)": {
        "details": "Transfers ownership of the contract to a new account (`newOwner`). Can only be called by the current owner."
      }
    },
    "title": "BurnableERC20",
    "version": 1
  },
  "userdoc": {
    "kind": "user",
    "methods": {},
    "version": 1
  }
}